{
  "_format": "hh-sol-artifact-1",
  "contractName": "FourBlock",
  "sourceName": "contracts/FourBlock.sol",
  "abi": [
    {
      "inputs": [],
      "stateMutability": "nonpayable",
      "type": "constructor"
    },
    {
      "inputs": [],
      "name": "checkIn",
      "outputs": [],
      "stateMutability": "nonpayable",
      "type": "function"
    },
    {
      "inputs": [
        {
          "internalType": "address",
          "name": "",
          "type": "address"
        }
      ],
      "name": "checkInCountByAddress",
      "outputs": [
        {
          "internalType": "uint256",
          "name": "",
          "type": "uint256"
        }
      ],
      "stateMutability": "view",
      "type": "function"
    },
    {
      "inputs": [],
      "name": "getTotalCheckIns",
      "outputs": [
        {
          "internalType": "uint256",
          "name": "",
          "type": "uint256"
        }
      ],
      "stateMutability": "view",
      "type": "function"
    }
  ],
  "bytecode": "0x608060405234801561001057600080fd5b5061003c60405180606001604052806030815260200161081e6030913961004160201b6101b11760201c565b6101c4565b6100dd816040516024016100559190610142565b6040516020818303038152906040527f41304fac000000000000000000000000000000000000000000000000000000007bffffffffffffffffffffffffffffffffffffffffffffffffffffffff19166020820180517bffffffffffffffffffffffffffffffffffffffffffffffffffffffff83818316178352505050506100e060201b60201c565b50565b60008151905060006a636f6e736f6c652e6c6f679050602083016000808483855afa5050505050565b600061011482610164565b61011e818561016f565b935061012e818560208601610180565b610137816101b3565b840191505092915050565b6000602082019050818103600083015261015c8184610109565b905092915050565b600081519050919050565b600082825260208201905092915050565b60005b8381101561019e578082015181840152602081019050610183565b838111156101ad576000848401525b50505050565b6000601f19601f8301169050919050565b61064b806101d36000396000f3fe608060405234801561001057600080fd5b50600436106100415760003560e01c8063183ff085146100465780637f07923f14610050578063cc5a7ce614610080575b600080fd5b61004e61009e565b005b61006a600480360381019061006591906103c0565b61014e565b60405161007791906104c2565b60405180910390f35b610088610166565b60405161009591906104c2565b60405180910390f35b60016000808282546100b091906104f9565b9250508190555060018060003373ffffffffffffffffffffffffffffffffffffffff1673ffffffffffffffffffffffffffffffffffffffff168152602001908152602001600020600082825461010691906104f9565b9250508190555061014c6040518060400160405280601281526020017f25732068617320636865636b656420696e2100000000000000000000000000008152503361024a565b565b60016020528060005260406000206000915090505481565b60006101a96040518060400160405280601b81526020017f5765206861766520256420746f74616c20636865636b2d696e732100000000008152506000546102e6565b600054905090565b610247816040516024016101c59190610440565b6040516020818303038152906040527f41304fac000000000000000000000000000000000000000000000000000000007bffffffffffffffffffffffffffffffffffffffffffffffffffffffff19166020820180517bffffffffffffffffffffffffffffffffffffffffffffffffffffffff8381831617835250505050610382565b50565b6102e28282604051602401610260929190610462565b6040516020818303038152906040527f319af333000000000000000000000000000000000000000000000000000000007bffffffffffffffffffffffffffffffffffffffffffffffffffffffff19166020820180517bffffffffffffffffffffffffffffffffffffffffffffffffffffffff8381831617835250505050610382565b5050565b61037e82826040516024016102fc929190610492565b6040516020818303038152906040527f9710a9d0000000000000000000000000000000000000000000000000000000007bffffffffffffffffffffffffffffffffffffffffffffffffffffffff19166020820180517bffffffffffffffffffffffffffffffffffffffffffffffffffffffff8381831617835250505050610382565b5050565b60008151905060006a636f6e736f6c652e6c6f679050602083016000808483855afa5050505050565b6000813590506103ba816105fe565b92915050565b6000602082840312156103d257600080fd5b60006103e0848285016103ab565b91505092915050565b6103f28161054f565b82525050565b6000610403826104dd565b61040d81856104e8565b935061041d81856020860161058b565b610426816105ed565b840191505092915050565b61043a81610581565b82525050565b6000602082019050818103600083015261045a81846103f8565b905092915050565b6000604082019050818103600083015261047c81856103f8565b905061048b60208301846103e9565b9392505050565b600060408201905081810360008301526104ac81856103f8565b90506104bb6020830184610431565b9392505050565b60006020820190506104d76000830184610431565b92915050565b600081519050919050565b600082825260208201905092915050565b600061050482610581565b915061050f83610581565b9250827fffffffffffffffffffffffffffffffffffffffffffffffffffffffffffffffff03821115610544576105436105be565b5b828201905092915050565b600061055a82610561565b9050919050565b600073ffffffffffffffffffffffffffffffffffffffff82169050919050565b6000819050919050565b60005b838110156105a957808201518184015260208101905061058e565b838111156105b8576000848401525b50505050565b7f4e487b7100000000000000000000000000000000000000000000000000000000600052601160045260246000fd5b6000601f19601f8301169050919050565b6106078161054f565b811461061257600080fd5b5056fea2646970667358221220962bfa5903b506a0de10c6419b4d98ddf87840d406342f2b62984823a3dbcf7364736f6c63430008040033466f7572426c6f636b202d20436865636b2d496e20636f6e747261637420686173206265656e206465706c6f7965642e",
  "linkReferences": {},
  "deployedLinkReferences": {}
}