{
  "_format": "hh-sol-artifact-1",
  "contractName": "FourBlock",
  "sourceName": "contracts/FourBlock.sol",
  "abi": [
    {
      "inputs": [],
      "stateMutability": "nonpayable",
      "type": "constructor"
    },
    {
      "anonymous": false,
      "inputs": [
        {
          "indexed": true,
          "internalType": "address",
          "name": "from",
          "type": "address"
        },
        {
          "indexed": false,
          "internalType": "uint256",
          "name": "timestamp",
          "type": "uint256"
        },
        {
          "indexed": false,
          "internalType": "string",
          "name": "lat",
          "type": "string"
        },
        {
          "indexed": false,
          "internalType": "string",
          "name": "lon",
          "type": "string"
        }
      ],
      "name": "NewCheckIn",
      "type": "event"
    },
    {
      "inputs": [
        {
          "internalType": "string",
          "name": "lat",
          "type": "string"
        },
        {
          "internalType": "string",
          "name": "lon",
          "type": "string"
        }
      ],
      "name": "checkIn",
      "outputs": [],
      "stateMutability": "nonpayable",
      "type": "function"
    },
    {
      "inputs": [
        {
          "internalType": "address",
          "name": "",
          "type": "address"
        },
        {
          "internalType": "uint256",
          "name": "",
          "type": "uint256"
        }
      ],
      "name": "checkIns",
      "outputs": [
        {
          "internalType": "string",
          "name": "lat",
          "type": "string"
        },
        {
          "internalType": "string",
          "name": "lon",
          "type": "string"
        },
        {
          "internalType": "uint256",
          "name": "timestamp",
          "type": "uint256"
        }
      ],
      "stateMutability": "view",
      "type": "function"
    },
    {
      "inputs": [],
      "name": "getCheckIns",
      "outputs": [
        {
          "components": [
            {
              "internalType": "string",
              "name": "lat",
              "type": "string"
            },
            {
              "internalType": "string",
              "name": "lon",
              "type": "string"
            },
            {
              "internalType": "uint256",
              "name": "timestamp",
              "type": "uint256"
            }
          ],
          "internalType": "struct FourBlock.CheckIn[]",
          "name": "",
          "type": "tuple[]"
        }
      ],
      "stateMutability": "view",
      "type": "function"
    },
    {
      "inputs": [],
      "name": "getTotalCheckIns",
      "outputs": [
        {
          "internalType": "uint256",
          "name": "",
          "type": "uint256"
        }
      ],
      "stateMutability": "view",
      "type": "function"
    }
  ],
  "bytecode": "0x60806040523480156200001157600080fd5b506200004160405180606001604052806030815260200162001023603091396200004760201b6200057f1760201c565b620001db565b620000e7816040516024016200005e919062000154565b6040516020818303038152906040527f41304fac000000000000000000000000000000000000000000000000000000007bffffffffffffffffffffffffffffffffffffffffffffffffffffffff19166020820180517bffffffffffffffffffffffffffffffffffffffffffffffffffffffff8381831617835250505050620000ea60201b60201c565b50565b60008151905060006a636f6e736f6c652e6c6f679050602083016000808483855afa5050505050565b6000620001208262000178565b6200012c818562000183565b93506200013e81856020860162000194565b6200014981620001ca565b840191505092915050565b6000602082019050818103600083015262000170818462000113565b905092915050565b600081519050919050565b600082825260208201905092915050565b60005b83811015620001b457808201518184015260208101905062000197565b83811115620001c4576000848401525b50505050565b6000601f19601f8301169050919050565b610e3880620001eb6000396000f3fe608060405234801561001057600080fd5b506004361061004c5760003560e01c80633b60e346146100515780638f6581781461006d578063cc5a7ce61461008b578063d7551b25146100a9575b600080fd5b61006b6004803603810190610066919061084e565b6100db565b005b610075610213565b6040516100829190610a2a565b60405180910390f35b6100936103dd565b6040516100a09190610ae3565b60405180910390f35b6100c360048036038101906100be9190610812565b610428565b6040516100d293929190610a6e565b60405180910390f35b60016000808282546100ed9190610bff565b92505081905550600160003373ffffffffffffffffffffffffffffffffffffffff1673ffffffffffffffffffffffffffffffffffffffff168152602001908152602001600020604051806060016040528084815260200183815260200142815250908060018154018082558091505060019003906000526020600020906003020160009091909190915060008201518160000190805190602001906101939291906106dd565b5060208201518160010190805190602001906101b09291906106dd565b506040820151816002015550503373ffffffffffffffffffffffffffffffffffffffff167fc1866435f222d505be7aea7db1594943c772c415a7de279e88d6b73866cf171942848460405161020793929190610afe565b60405180910390a25050565b6060600160003373ffffffffffffffffffffffffffffffffffffffff1673ffffffffffffffffffffffffffffffffffffffff168152602001908152602001600020805480602002602001604051908101604052809291908181526020016000905b828210156103d457838290600052602060002090600302016040518060600160405290816000820180546102a790610cd3565b80601f01602080910402602001604051908101604052809291908181526020018280546102d390610cd3565b80156103205780601f106102f557610100808354040283529160200191610320565b820191906000526020600020905b81548152906001019060200180831161030357829003601f168201915b5050505050815260200160018201805461033990610cd3565b80601f016020809104026020016040519081016040528092919081815260200182805461036590610cd3565b80156103b25780601f10610387576101008083540402835291602001916103b2565b820191906000526020600020905b81548152906001019060200180831161039557829003601f168201915b5050505050815260200160028201548152505081526020019060010190610274565b50505050905090565b60006104206040518060400160405280601b81526020017f5765206861766520256420746f74616c20636865636b2d696e73210000000000815250600054610618565b600054905090565b6001602052816000526040600020818154811061044457600080fd5b90600052602060002090600302016000915091505080600001805461046890610cd3565b80601f016020809104026020016040519081016040528092919081815260200182805461049490610cd3565b80156104e15780601f106104b6576101008083540402835291602001916104e1565b820191906000526020600020905b8154815290600101906020018083116104c457829003601f168201915b5050505050908060010180546104f690610cd3565b80601f016020809104026020016040519081016040528092919081815260200182805461052290610cd3565b801561056f5780601f106105445761010080835404028352916020019161056f565b820191906000526020600020905b81548152906001019060200180831161055257829003601f168201915b5050505050908060020154905083565b610615816040516024016105939190610a4c565b6040516020818303038152906040527f41304fac000000000000000000000000000000000000000000000000000000007bffffffffffffffffffffffffffffffffffffffffffffffffffffffff19166020820180517bffffffffffffffffffffffffffffffffffffffffffffffffffffffff83818316178352505050506106b4565b50565b6106b0828260405160240161062e929190610ab3565b6040516020818303038152906040527f9710a9d0000000000000000000000000000000000000000000000000000000007bffffffffffffffffffffffffffffffffffffffffffffffffffffffff19166020820180517bffffffffffffffffffffffffffffffffffffffffffffffffffffffff83818316178352505050506106b4565b5050565b60008151905060006a636f6e736f6c652e6c6f679050602083016000808483855afa5050505050565b8280546106e990610cd3565b90600052602060002090601f01602090048101928261070b5760008555610752565b82601f1061072457805160ff1916838001178555610752565b82800160010185558215610752579182015b82811115610751578251825591602001919060010190610736565b5b50905061075f9190610763565b5090565b5b8082111561077c576000816000905550600101610764565b5090565b600061079361078e84610b68565b610b43565b9050828152602081018484840111156107ab57600080fd5b6107b6848285610c91565b509392505050565b6000813590506107cd81610dd4565b92915050565b600082601f8301126107e457600080fd5b81356107f4848260208601610780565b91505092915050565b60008135905061080c81610deb565b92915050565b6000806040838503121561082557600080fd5b6000610833858286016107be565b9250506020610844858286016107fd565b9150509250929050565b6000806040838503121561086157600080fd5b600083013567ffffffffffffffff81111561087b57600080fd5b610887858286016107d3565b925050602083013567ffffffffffffffff8111156108a457600080fd5b6108b0858286016107d3565b9150509250929050565b60006108c683836109b5565b905092915050565b60006108d982610ba9565b6108e38185610bcc565b9350836020820285016108f585610b99565b8060005b85811015610931578484038952815161091285826108ba565b945061091d83610bbf565b925060208a019950506001810190506108f9565b50829750879550505050505092915050565b600061094e82610bb4565b6109588185610bdd565b9350610968818560208601610ca0565b61097181610dc3565b840191505092915050565b600061098782610bb4565b6109918185610bee565b93506109a1818560208601610ca0565b6109aa81610dc3565b840191505092915050565b600060608301600083015184820360008601526109d28282610943565b915050602083015184820360208601526109ec8282610943565b9150506040830151610a016040860182610a0c565b508091505092915050565b610a1581610c87565b82525050565b610a2481610c87565b82525050565b60006020820190508181036000830152610a4481846108ce565b905092915050565b60006020820190508181036000830152610a66818461097c565b905092915050565b60006060820190508181036000830152610a88818661097c565b90508181036020830152610a9c818561097c565b9050610aab6040830184610a1b565b949350505050565b60006040820190508181036000830152610acd818561097c565b9050610adc6020830184610a1b565b9392505050565b6000602082019050610af86000830184610a1b565b92915050565b6000606082019050610b136000830186610a1b565b8181036020830152610b25818561097c565b90508181036040830152610b39818461097c565b9050949350505050565b6000610b4d610b5e565b9050610b598282610d05565b919050565b6000604051905090565b600067ffffffffffffffff821115610b8357610b82610d94565b5b610b8c82610dc3565b9050602081019050919050565b6000819050602082019050919050565b600081519050919050565b600081519050919050565b6000602082019050919050565b600082825260208201905092915050565b600082825260208201905092915050565b600082825260208201905092915050565b6000610c0a82610c87565b9150610c1583610c87565b9250827fffffffffffffffffffffffffffffffffffffffffffffffffffffffffffffffff03821115610c4a57610c49610d36565b5b828201905092915050565b6000610c6082610c67565b9050919050565b600073ffffffffffffffffffffffffffffffffffffffff82169050919050565b6000819050919050565b82818337600083830152505050565b60005b83811015610cbe578082015181840152602081019050610ca3565b83811115610ccd576000848401525b50505050565b60006002820490506001821680610ceb57607f821691505b60208210811415610cff57610cfe610d65565b5b50919050565b610d0e82610dc3565b810181811067ffffffffffffffff82111715610d2d57610d2c610d94565b5b80604052505050565b7f4e487b7100000000000000000000000000000000000000000000000000000000600052601160045260246000fd5b7f4e487b7100000000000000000000000000000000000000000000000000000000600052602260045260246000fd5b7f4e487b7100000000000000000000000000000000000000000000000000000000600052604160045260246000fd5b6000601f19601f8301169050919050565b610ddd81610c55565b8114610de857600080fd5b50565b610df481610c87565b8114610dff57600080fd5b5056fea26469706673582212209fff42480ba8e530db7b0b248d8361d4dcd63bf7c35da8911fb96ab38017664c64736f6c63430008040033466f7572426c6f636b202d20436865636b2d496e20636f6e747261637420686173206265656e206465706c6f7965642e",
  "linkReferences": {},
  "deployedLinkReferences": {}
}